{
  "_format": "hh-sol-artifact-1",
  "contractName": "TimeMarketplaceFHE",
  "sourceName": "contracts/TimeMarketplaceFHE.sol",
  "abi": [
    {
      "inputs": [
        {
          "internalType": "address",
          "name": "_treasury",
          "type": "address"
        }
      ],
      "stateMutability": "nonpayable",
      "type": "constructor"
    },
    {
      "inputs": [
        {
          "internalType": "address",
          "name": "owner",
          "type": "address"
        }
      ],
      "name": "OwnableInvalidOwner",
      "type": "error"
    },
    {
      "inputs": [
        {
          "internalType": "address",
          "name": "account",
          "type": "address"
        }
      ],
      "name": "OwnableUnauthorizedAccount",
      "type": "error"
    },
    {
      "inputs": [],
      "name": "ReentrancyGuardReentrantCall",
      "type": "error"
    },
    {
      "anonymous": false,
      "inputs": [
        {
          "indexed": true,
          "internalType": "address",
          "name": "by",
          "type": "address"
        },
        {
          "indexed": false,
          "internalType": "bool",
          "name": "enabled",
          "type": "bool"
        }
      ],
      "name": "FHEEnabled",
      "type": "event"
    },
    {
      "anonymous": false,
      "inputs": [
        {
          "indexed": true,
          "internalType": "uint256",
          "name": "offerId",
          "type": "uint256"
        },
        {
          "indexed": true,
          "internalType": "address",
          "name": "creator",
          "type": "address"
        },
        {
          "indexed": false,
          "internalType": "string",
          "name": "title",
          "type": "string"
        },
        {
          "indexed": false,
          "internalType": "uint256",
          "name": "publicPrice",
          "type": "uint256"
        },
        {
          "indexed": false,
          "internalType": "uint256",
          "name": "duration",
          "type": "uint256"
        },
        {
          "indexed": false,
          "internalType": "uint256",
          "name": "slots",
          "type": "uint256"
        }
      ],
      "name": "OfferCreated",
      "type": "event"
    },
    {
      "anonymous": false,
      "inputs": [
        {
          "indexed": true,
          "internalType": "uint256",
          "name": "offerId",
          "type": "uint256"
        },
        {
          "indexed": true,
          "internalType": "address",
          "name": "creator",
          "type": "address"
        }
      ],
      "name": "OfferDeactivated",
      "type": "event"
    },
    {
      "anonymous": false,
      "inputs": [
        {
          "indexed": true,
          "internalType": "uint256",
          "name": "offerId",
          "type": "uint256"
        },
        {
          "indexed": true,
          "internalType": "address",
          "name": "buyer",
          "type": "address"
        },
        {
          "indexed": false,
          "internalType": "uint256",
          "name": "slots",
          "type": "uint256"
        },
        {
          "indexed": false,
          "internalType": "uint256",
          "name": "totalPrice",
          "type": "uint256"
        },
        {
          "indexed": false,
          "internalType": "uint256",
          "name": "slotsLeft",
          "type": "uint256"
        }
      ],
      "name": "OfferPurchased",
      "type": "event"
    },
    {
      "anonymous": false,
      "inputs": [
        {
          "indexed": true,
          "internalType": "address",
          "name": "previousOwner",
          "type": "address"
        },
        {
          "indexed": true,
          "internalType": "address",
          "name": "newOwner",
          "type": "address"
        }
      ],
      "name": "OwnershipTransferred",
      "type": "event"
    },
    {
      "inputs": [
        {
          "internalType": "uint256",
          "name": "",
          "type": "uint256"
        }
      ],
      "name": "activeOfferIds",
      "outputs": [
        {
          "internalType": "uint256",
          "name": "",
          "type": "uint256"
        }
      ],
      "stateMutability": "view",
      "type": "function"
    },
    {
      "inputs": [
        {
          "internalType": "uint256",
          "name": "_offerId1",
          "type": "uint256"
        },
        {
          "internalType": "uint256",
          "name": "_offerId2",
          "type": "uint256"
        }
      ],
      "name": "comparePrices",
      "outputs": [
        {
          "internalType": "ebool",
          "name": "",
          "type": "bytes32"
        }
      ],
      "stateMutability": "nonpayable",
      "type": "function"
    },
    {
      "inputs": [
        {
          "internalType": "string",
          "name": "_title",
          "type": "string"
        },
        {
          "internalType": "string",
          "name": "_description",
          "type": "string"
        },
        {
          "internalType": "uint256",
          "name": "_price",
          "type": "uint256"
        },
        {
          "internalType": "uint256",
          "name": "_duration",
          "type": "uint256"
        },
        {
          "internalType": "uint256",
          "name": "_slots",
          "type": "uint256"
        }
      ],
      "name": "createOffer",
      "outputs": [],
      "stateMutability": "nonpayable",
      "type": "function"
    },
    {
      "inputs": [
        {
          "internalType": "string",
          "name": "_title",
          "type": "string"
        },
        {
          "internalType": "string",
          "name": "_description",
          "type": "string"
        },
        {
          "internalType": "uint256",
          "name": "_publicPrice",
          "type": "uint256"
        },
        {
          "internalType": "uint256",
          "name": "_duration",
          "type": "uint256"
        },
        {
          "internalType": "uint256",
          "name": "_slots",
          "type": "uint256"
        },
        {
          "internalType": "euint32",
          "name": "_encryptedPrice",
          "type": "bytes32"
        },
        {
          "internalType": "euint32",
          "name": "_encryptedDuration",
          "type": "bytes32"
        },
        {
          "internalType": "euint32",
          "name": "_encryptedSlots",
          "type": "bytes32"
        }
      ],
      "name": "createOfferWithFHE",
      "outputs": [],
      "stateMutability": "nonpayable",
      "type": "function"
    },
    {
      "inputs": [
        {
          "internalType": "uint256",
          "name": "_offerId",
          "type": "uint256"
        }
      ],
      "name": "deactivateOffer",
      "outputs": [],
      "stateMutability": "nonpayable",
      "type": "function"
    },
    {
      "inputs": [],
      "name": "disableFHE",
      "outputs": [],
      "stateMutability": "nonpayable",
      "type": "function"
    },
    {
      "inputs": [],
      "name": "emergencyWithdraw",
      "outputs": [],
      "stateMutability": "nonpayable",
      "type": "function"
    },
    {
      "inputs": [],
      "name": "enableFHE",
      "outputs": [],
      "stateMutability": "nonpayable",
      "type": "function"
    },
    {
      "inputs": [],
      "name": "fheEnabled",
      "outputs": [
        {
          "internalType": "bool",
          "name": "",
          "type": "bool"
        }
      ],
      "stateMutability": "view",
      "type": "function"
    },
    {
      "inputs": [],
      "name": "getActiveOfferIds",
      "outputs": [
        {
          "internalType": "uint256[]",
          "name": "",
          "type": "uint256[]"
        }
      ],
      "stateMutability": "view",
      "type": "function"
    },
    {
      "inputs": [],
      "name": "getContractStats",
      "outputs": [
        {
          "internalType": "uint256",
          "name": "",
          "type": "uint256"
        },
        {
          "internalType": "uint256",
          "name": "",
          "type": "uint256"
        },
        {
          "internalType": "uint256",
          "name": "",
          "type": "uint256"
        },
        {
          "internalType": "uint256",
          "name": "",
          "type": "uint256"
        }
      ],
      "stateMutability": "view",
      "type": "function"
    },
    {
      "inputs": [
        {
          "internalType": "uint256",
          "name": "_offerId",
          "type": "uint256"
        }
      ],
      "name": "getEncryptedOfferData",
      "outputs": [
        {
          "internalType": "euint32",
          "name": "",
          "type": "bytes32"
        },
        {
          "internalType": "euint32",
          "name": "",
          "type": "bytes32"
        },
        {
          "internalType": "euint32",
          "name": "",
          "type": "bytes32"
        }
      ],
      "stateMutability": "view",
      "type": "function"
    },
    {
      "inputs": [],
      "name": "getPlatformFee",
      "outputs": [
        {
          "internalType": "uint256",
          "name": "",
          "type": "uint256"
        }
      ],
      "stateMutability": "view",
      "type": "function"
    },
    {
      "inputs": [],
      "name": "getTreasury",
      "outputs": [
        {
          "internalType": "address",
          "name": "",
          "type": "address"
        }
      ],
      "stateMutability": "view",
      "type": "function"
    },
    {
      "inputs": [
        {
          "internalType": "address",
          "name": "_user",
          "type": "address"
        }
      ],
      "name": "getUserOffers",
      "outputs": [
        {
          "internalType": "uint256[]",
          "name": "",
          "type": "uint256[]"
        }
      ],
      "stateMutability": "view",
      "type": "function"
    },
    {
      "inputs": [
        {
          "internalType": "address",
          "name": "_user",
          "type": "address"
        }
      ],
      "name": "getUserPurchases",
      "outputs": [
        {
          "internalType": "uint256[]",
          "name": "",
          "type": "uint256[]"
        }
      ],
      "stateMutability": "view",
      "type": "function"
    },
    {
      "inputs": [],
      "name": "isFHEEnabled",
      "outputs": [
        {
          "internalType": "bool",
          "name": "",
          "type": "bool"
        }
      ],
      "stateMutability": "view",
      "type": "function"
    },
    {
      "inputs": [],
      "name": "nextOfferId",
      "outputs": [
        {
          "internalType": "uint256",
          "name": "",
          "type": "uint256"
        }
      ],
      "stateMutability": "view",
      "type": "function"
    },
    {
      "inputs": [],
      "name": "nextPurchaseId",
      "outputs": [
        {
          "internalType": "uint256",
          "name": "",
          "type": "uint256"
        }
      ],
      "stateMutability": "view",
      "type": "function"
    },
    {
      "inputs": [
        {
          "internalType": "uint256",
          "name": "",
          "type": "uint256"
        }
      ],
      "name": "offers",
      "outputs": [
        {
          "internalType": "uint256",
          "name": "id",
          "type": "uint256"
        },
        {
          "internalType": "address",
          "name": "creator",
          "type": "address"
        },
        {
          "internalType": "string",
          "name": "title",
          "type": "string"
        },
        {
          "internalType": "string",
          "name": "description",
          "type": "string"
        },
        {
          "internalType": "uint256",
          "name": "publicPrice",
          "type": "uint256"
        },
        {
          "internalType": "uint256",
          "name": "duration",
          "type": "uint256"
        },
        {
          "internalType": "uint256",
          "name": "slots",
          "type": "uint256"
        },
        {
          "internalType": "uint256",
          "name": "availableSlots",
          "type": "uint256"
        },
        {
          "internalType": "bool",
          "name": "isActive",
          "type": "bool"
        },
        {
          "internalType": "uint256",
          "name": "createdAt",
          "type": "uint256"
        },
        {
          "internalType": "uint256",
          "name": "expiresAt",
          "type": "uint256"
        },
        {
          "internalType": "euint32",
          "name": "encryptedPrice",
          "type": "bytes32"
        },
        {
          "internalType": "euint32",
          "name": "encryptedDuration",
          "type": "bytes32"
        },
        {
          "internalType": "euint32",
          "name": "encryptedSlots",
          "type": "bytes32"
        }
      ],
      "stateMutability": "view",
      "type": "function"
    },
    {
      "inputs": [],
      "name": "owner",
      "outputs": [
        {
          "internalType": "address",
          "name": "",
          "type": "address"
        }
      ],
      "stateMutability": "view",
      "type": "function"
    },
    {
      "inputs": [],
      "name": "platformFee",
      "outputs": [
        {
          "internalType": "uint256",
          "name": "",
          "type": "uint256"
        }
      ],
      "stateMutability": "view",
      "type": "function"
    },
    {
      "inputs": [
        {
          "internalType": "uint256",
          "name": "_offerId",
          "type": "uint256"
        },
        {
          "internalType": "uint256",
          "name": "_slots",
          "type": "uint256"
        }
      ],
      "name": "purchaseOffer",
      "outputs": [],
      "stateMutability": "payable",
      "type": "function"
    },
    {
      "inputs": [
        {
          "internalType": "uint256",
          "name": "",
          "type": "uint256"
        }
      ],
      "name": "purchases",
      "outputs": [
        {
          "internalType": "uint256",
          "name": "offerId",
          "type": "uint256"
        },
        {
          "internalType": "address",
          "name": "buyer",
          "type": "address"
        },
        {
          "internalType": "uint256",
          "name": "slots",
          "type": "uint256"
        },
        {
          "internalType": "uint256",
          "name": "totalPrice",
          "type": "uint256"
        },
        {
          "internalType": "uint256",
          "name": "timestamp",
          "type": "uint256"
        }
      ],
      "stateMutability": "view",
      "type": "function"
    },
    {
      "inputs": [],
      "name": "renounceOwnership",
      "outputs": [],
      "stateMutability": "nonpayable",
      "type": "function"
    },
    {
      "inputs": [],
      "name": "totalOffersCreated",
      "outputs": [
        {
          "internalType": "uint256",
          "name": "",
          "type": "uint256"
        }
      ],
      "stateMutability": "view",
      "type": "function"
    },
    {
      "inputs": [],
      "name": "totalPurchases",
      "outputs": [
        {
          "internalType": "uint256",
          "name": "",
          "type": "uint256"
        }
      ],
      "stateMutability": "view",
      "type": "function"
    },
    {
      "inputs": [],
      "name": "totalVolume",
      "outputs": [
        {
          "internalType": "uint256",
          "name": "",
          "type": "uint256"
        }
      ],
      "stateMutability": "view",
      "type": "function"
    },
    {
      "inputs": [
        {
          "internalType": "address",
          "name": "newOwner",
          "type": "address"
        }
      ],
      "name": "transferOwnership",
      "outputs": [],
      "stateMutability": "nonpayable",
      "type": "function"
    },
    {
      "inputs": [],
      "name": "treasury",
      "outputs": [
        {
          "internalType": "address",
          "name": "",
          "type": "address"
        }
      ],
      "stateMutability": "view",
      "type": "function"
    },
    {
      "inputs": [
        {
          "internalType": "uint256",
          "name": "_newFee",
          "type": "uint256"
        }
      ],
      "name": "updatePlatformFee",
      "outputs": [],
      "stateMutability": "nonpayable",
      "type": "function"
    },
    {
      "inputs": [
        {
          "internalType": "address",
          "name": "_newTreasury",
          "type": "address"
        }
      ],
      "name": "updateTreasury",
      "outputs": [],
      "stateMutability": "nonpayable",
      "type": "function"
    },
    {
      "inputs": [
        {
          "internalType": "address",
          "name": "",
          "type": "address"
        },
        {
          "internalType": "uint256",
          "name": "",
          "type": "uint256"
        }
      ],
      "name": "userOffers",
      "outputs": [
        {
          "internalType": "uint256",
          "name": "",
          "type": "uint256"
        }
      ],
      "stateMutability": "view",
      "type": "function"
    },
    {
      "inputs": [
        {
          "internalType": "address",
          "name": "",
          "type": "address"
        },
        {
          "internalType": "uint256",
          "name": "",
          "type": "uint256"
        }
      ],
      "name": "userPurchases",
      "outputs": [
        {
          "internalType": "uint256",
          "name": "",
          "type": "uint256"
        }
      ],
      "stateMutability": "view",
      "type": "function"
    }
  ],
  "bytecode": "0x60803461012f57601f6200240f38819003918201601f19168301916001600160401b038311848410176101345780849260209460405283398101031261012f57516001600160a01b038082169182900361012f573315610116576000543360018060a01b0319821617600055604051913391167f8be0079c531659141344cd1fd0a4f28419497f9722a3daafe3b4186f6b6457e0600080a360018055600160025560016003556101f4600c55600d549082156100d457506001600160a81b03191617600d556040516122c490816200014b8239f35b62461bcd60e51b815260206004820152601860248201527f496e76616c6964207472656173757279206164647265737300000000000000006044820152606490fd5b604051631e4fbdf760e01b815260006004820152602490fd5b600080fd5b634e487b7160e01b600052604160045260246000fdfe6080604052600436101561001257600080fd5b60003560e01c80630b5e1f3f14611a6057806316df4aec14611a4257806323b4a7a314611a2457806326232a2e146112505780632cf27455146119a95780633b19e84a146116e657806354f2bbd6146119805780635962a941146119625780635ce30fa41461174b5780635f5d06551461172d5780635f81a57c1461170f57806361d027b3146116e6578063661d2c2c1461166b57806367ee89b11461126e5780636ea8bc1014611250578063715018a6146111f75780637f51bb1f1461116a5780638392fe311461110b5780638a72ea6a1461100f5780638da5cb5b14610fe65780639793acba14610803578063aa0b598814610f7f578063bc2ea4f114610edc578063bd5fec6514610e92578063c19a3cea14610df3578063c69d041814610980578063c6e5d8f6146108f5578063c8798c8514610881578063cf2c033414610829578063cfa3082814610803578063db2e21bc1461074c578063dfe6b5d614610715578063f21bc91a146102205763f2fde38b1461019257600080fd5b3461021b57602036600319011261021b576101ab611c3e565b6101b36121c0565b6001600160a01b0390811690811561020257600054826001600160601b0360a01b821617600055167f8be0079c531659141344cd1fd0a4f28419497f9722a3daafe3b4186f6b6457e0600080a3005b604051631e4fbdf760e01b815260006004820152602490fd5b600080fd5b3461021b5761010036600319011261021b5760043567ffffffffffffffff811161021b57610252903690600401611caf565b60243567ffffffffffffffff811161021b57610272903690600401611caf565b61027a61219d565b61028b60ff600d5460a01c16611e54565b61029782511515611e95565b6102a381511515611ed9565b6102b06044351515611f25565b60643515906102bf8215611f71565b6102cc6084351515611fbd565b600254916102d983612009565b60025560643562015180818102929183041417156106ff576102fb904261202b565b6040519161030883611c54565b8383523360208401528460408401526060830152604435608083015260643560a083015260843560c083015260843560e083015260016101008301524261012083015261014082015260a43561016082015260c43561018082015260e4356101a0820152816000526004602052604060002090805182556001820160018060a01b036020830151166001600160601b0360a01b825416179055604081015180519067ffffffffffffffff82116106195781906103c76002860154611cf6565b601f81116106ac575b50602090601f831160011461063a5760009261062f575b50508160011b916000199060031b1c19161760028301555b606081015180519067ffffffffffffffff8211610619576104236003850154611cf6565b601f81116105d2575b50602090601f831160011461055c579180600d94926101a094600092610551575b50508160011b916000199060031b1c19161760038501555b6080810151600485015560a0810151600585015560c0810151600685015560e081015160078501556104ad6101008201511515600886019060ff801983541691151516179055565b6101208101516009850155610140810151600a850155610160810151600b850155610180810151600c85015501519101553360005260066020526104f5816040600020612074565b6104fe81612038565b610509600954612009565b6009557f6048132349b4755c4106fba6b9fb9a3cc8d0361fa219cb21bebc1b2c60a8d9bb60405180610548339560843590606435906044359085612097565b0390a360018055005b01519050888061044d565b906003850160005260206000209160005b601f19851681106105ba575092600d94926001926101a09583601f198116106105a1575b505050811b016003850155610465565b015160001960f88460031b161c19169055888080610591565b9192602060018192868501518155019401920161056d565b600385016000526020600020601f840160051c810160208510610612575b601f830160051c8201811061060657505061042c565b600081556001016105f0565b50806105f0565b634e487b7160e01b600052604160045260246000fd5b0151905086806103e7565b9250600285016000526020600020906000935b601f1984168510610691576001945083601f19811610610678575b505050811b0160028301556103ff565b015160001960f88460031b161c19169055868080610668565b8181015183556020948501946001909301929091019061064d565b909150600285016000526020600020601f840160051c8101602085106106f8575b90849392915b601f830160051c820181106106e95750506103d0565b600081558594506001016106d3565b50806106cd565b634e487b7160e01b600052601160045260246000fd5b3461021b57600036600319011261021b576080600954600a54600b5460085491604051938452602084015260408301526060820152f35b3461021b57600036600319011261021b576107656121c0565b4780156107c75760008080809360018060a01b038254165af16107866120cc565b501561078e57005b60405162461bcd60e51b815260206004820152601160248201527015da5d1a191c985dd85b0819985a5b1959607a1b6044820152606490fd5b60405162461bcd60e51b81526020600482015260146024820152734e6f2066756e647320746f20776974686472617760601b6044820152606490fd5b3461021b57600036600319011261021b57602060ff600d5460a01c166040519015158152f35b3461021b57604036600319011261021b57610842611c3e565b6001600160a01b031660009081526007602052604090208054602435919082101561021b5760209161087391611c10565b90546040519160031b1c8152f35b3461021b57602036600319011261021b576004356108a660ff600d5460a01c16611e54565b801515806108ea575b6108b890611e15565b600052600460205260606040600020600b81015490600d600c8201549101549060405192835260208301526040820152f35b5060025481106108af565b3461021b5760208060031936011261021b576001600160a01b03610917611c3e565b1660005260076020526040600020906040519081602084549182815201936000526020600020916000905b828210610969576109658561095981890382611c71565b60405191829182611b87565b0390f35b835486529485019460019384019390910190610942565b61098936611c28565b9061099261219d565b80151580610de8575b6109a490611e15565b8115610da3578060005260206004815260406000206008810190815460ff811615610d68576007820191825491878310610d2357600a8201544211610cea57600182019060018060a01b0392838354163314610ca557896004610a08920154612018565b95612710610a18600c5489612018565b0491610a2483896120bf565b95883410610c69578b610a36916120bf565b80885515610c53575b5050600354610a4d81612009565b6003556040519060a082019180831067ffffffffffffffff84111761061957610ae3926040528a815260048a8d818401903382526040850190815260608501918d83526005608087019442865288600052526040600020955186558a600187019151166001600160601b0360a01b8254161790555160028501555160038401555191015533600052600789526040600020612074565b610aee600a54612009565b600a55610afd86600b5461202b565b600b5580610bf7575b50600080938193829354165af1610b1b6120cc565b5015610bb957813411610b65575b549160405194855284015260408301527fb66f09a4b1fc81b532e0d033e0e8cba1a2284efae3d417be0104f7e286adf8d360603393a360018055005b6000808080610b7486346120bf565b335af1610b7f6120cc565b50610b295760405162461bcd60e51b815260048101849052600d60248201526c1499599d5b990819985a5b1959609a1b6044820152606490fd5b60405162461bcd60e51b815260048101849052601660248201527510dc99585d1bdc881c185e5b595b9d0819985a5b195960521b6044820152606490fd5b60008080809386600d54165af1610c0c6120cc565b5015610c185788610b06565b60405162461bcd60e51b8152600481018790526013602482015272119959481d1c985b9cd9995c8819985a5b1959606a1b6044820152606490fd5b60ff19169055610c62886120fc565b8980610a3f565b60405162461bcd60e51b8152600481018b90526014602482015273125b9cdd59999a58da595b9d081c185e5b595b9d60621b6044820152606490fd5b60405162461bcd60e51b815260048101899052601e60248201527f43616e6e6f7420707572636861736520796f7572206f776e206f6666657200006044820152606490fd5b60405162461bcd60e51b815260048101879052601160248201527013d999995c881a185cc8195e1c1a5c9959607a1b6044820152606490fd5b60405162461bcd60e51b815260048101879052601a60248201527f4e6f7420656e6f75676820736c6f747320617661696c61626c650000000000006044820152606490fd5b60405162461bcd60e51b81526004810185905260136024820152724f66666572206973206e6f742061637469766560681b6044820152606490fd5b60405162461bcd60e51b815260206004820152601d60248201527f4d757374207075726368617365206174206c65617374203120736c6f740000006044820152606490fd5b50600254811061099b565b3461021b57600036600319011261021b57610e0c6121c0565b600d5460ff8160a01c1615610e565760ff60a01b1916600d556040516000815233907f79d3004fac47cc8aa2b633c3f57c95266f43e78587c5a20c965fcc1e100d4abe90602090a2005b60405162461bcd60e51b815260206004820152601460248201527311921148185b1c9958591e48191a5cd8589b195960621b6044820152606490fd5b3461021b57604036600319011261021b57610eab611c3e565b6001600160a01b031660009081526006602052604090208054602435919082101561021b5760209161087391611c10565b3461021b57600036600319011261021b57610ef56121c0565b600d5460ff8160a01c16610f445760ff60a01b1916600160a01b17600d556040516001815233907f79d3004fac47cc8aa2b633c3f57c95266f43e78587c5a20c965fcc1e100d4abe90602090a2005b60405162461bcd60e51b815260206004820152601360248201527211921148185b1c9958591e48195b98589b1959606a1b6044820152606490fd5b3461021b57602036600319011261021b57600435610f9b6121c0565b6103e88111610fa957600c55005b60405162461bcd60e51b81526020600482015260156024820152744665652063616e6e6f74206578636565642031302560581b6044820152606490fd5b3461021b57600036600319011261021b576000546040516001600160a01b039091168152602090f35b3461021b57602036600319011261021b5760048035600090815260209190915260409020805460018201546001600160a01b03169161105060028201611d30565b61105c60038301611d30565b91600481015492600582015460068301546007840154600885015460ff1690600986015492600a87015494600b88015496600c89015498600d0154996040519d8e9d8e6101c092839282526020820152604001528d016110bb91611dd5565b8c810360608e01526110cc91611dd5565b9960808c015260a08b015260c08a015260e089015215156101008801526101208701526101408601526101608501526101808401526101a08301520390f35b3461021b57602036600319011261021b57600435600052600560205260a06040600020805490600180841b0360018201541690600281015460046003830154920154926040519485526020850152604084015260608301526080820152f35b3461021b57602036600319011261021b57611183611c3e565b61118b6121c0565b6001600160a01b031680156111b2576001600160601b0360a01b600d541617600d55600080f35b60405162461bcd60e51b815260206004820152601860248201527f496e76616c6964207472656173757279206164647265737300000000000000006044820152606490fd5b3461021b57600036600319011261021b576112106121c0565b600080546001600160a01b0319811682556001600160a01b03167f8be0079c531659141344cd1fd0a4f28419497f9722a3daafe3b4186f6b6457e08280a3005b3461021b57600036600319011261021b576020600c54604051908152f35b3461021b5760a036600319011261021b5760043567ffffffffffffffff811161021b5761129f903690600401611caf565b60243567ffffffffffffffff811161021b576112bf903690600401611caf565b6112c761219d565b6112d382511515611e95565b6112df81511515611ed9565b6112ec6044351515611f25565b60643515906112fb8215611f71565b6113086084351515611fbd565b6002549161131583612009565b60025560643562015180818102929183041417156106ff57611337904261202b565b61133f6121ec565b6113476121ec565b906113506121ec565b926040519461135e86611c54565b8686523360208701528760408701526060860152604435608086015260643560a086015260843560c086015260843560e08601526001610100860152426101208601526101408501526101608401526101808301526101a0820152816000526004602052604060002090805182556001820160018060a01b036020830151166001600160601b0360a01b825416179055604081015180519067ffffffffffffffff82116106195781906114146002860154611cf6565b601f8111611618575b50602090601f83116001146115a65760009261159b575b50508160011b916000199060031b1c19161760028301555b606081015180519067ffffffffffffffff8211610619576114706003850154611cf6565b601f8111611554575b50602090601f83116001146114f8579180600d94926101a0946000926105515750508160011b916000199060031b1c19161760038501556080810151600485015560a0810151600585015560c0810151600685015560e081015160078501556104ad6101008201511515600886019060ff801983541691151516179055565b906003850160005260206000209160005b601f198516811061153c575092600d94926001926101a09583601f198116106105a157505050811b016003850155610465565b91926020600181928685015181550194019201611509565b600385016000526020600020601f840160051c810160208510611594575b601f830160051c82018110611588575050611479565b60008155600101611572565b5080611572565b015190508680611434565b9250600285016000526020600020906000935b601f19841685106115fd576001945083601f198116106115e4575b505050811b01600283015561144c565b015160001960f88460031b161c191690558680806115d4565b818101518355602094850194600190930192909101906115b9565b909150600285016000526020600020601f840160051c810160208510611664575b90849392915b601f830160051c8201811061165557505061141d565b6000815585945060010161163f565b5080611639565b3461021b5760208060031936011261021b576001600160a01b0361168d611c3e565b1660005260066020526040600020906040519081602084549182815201936000526020600020916000905b8282106116cf576109658561095981890382611c71565b8354865294850194600193840193909101906116b8565b3461021b57600036600319011261021b57600d546040516001600160a01b039091168152602090f35b3461021b57600036600319011261021b576020600b54604051908152f35b3461021b57600036600319011261021b576020600254604051908152f35b3461021b5761175936611c28565b9061176b60ff600d5460a01c16611e54565b80151580611957575b1561191d5781151580611912575b156118d8576000526020906004825260406000209060005260406000209060ff600882015416806118ca575b1561188d57600b8084920154920154821561187d575b801561186f575b606460018060a01b037f9e7b61f58c47dc699ac88507c4f5bb9f121c03808c5676a8078fe583e4649701541693600060405195869485936385362ee760e01b8552600485015260248401528160448401525af190811561186357600091611836575b50604051908152f35b90508181813d831161185c575b61184d8183611c71565b8101031261021b57518261182d565b503d611843565b6040513d6000823e3d90fd5b506118786121ec565b6117cb565b91506118876121ec565b916117c4565b60405162461bcd60e51b81526004810184905260156024820152744f6666657273206d7573742062652061637469766560581b6044820152606490fd5b5060ff6008830154166117ae565b60405162461bcd60e51b815260206004820152601260248201527124b73b30b634b21037b33332b91024a2101960711b6044820152606490fd5b506002548210611782565b60405162461bcd60e51b8152602060048201526012602482015271496e76616c6964206f66666572204944203160701b6044820152606490fd5b506002548110611774565b3461021b57600036600319011261021b576020600a54604051908152f35b3461021b57602036600319011261021b5760043560085481101561021b57610873602091611bc3565b3461021b57600036600319011261021b57604051806008549182815260208091019260086000527ff3f7a9fe364faab93b216da50a3214154f22a0a2b415b23a84c8169e8b636ee3916000905b828210611a0d576109658561095981890382611c71565b8354865294850194600193840193909101906119f6565b3461021b57600036600319011261021b576020600354604051908152f35b3461021b57600036600319011261021b576020600954604051908152f35b3461021b57602036600319011261021b5760043580151580611b7c575b611a8690611e15565b60008181526004602052604090206001810180546001600160a01b039290831633148015611b6f575b15611b3957600801805460ff811615611afb5760ff19169055611ad1836120fc565b5416907f7396d7b9b9d06aed97fc917b68d0d07e75b3a6b21f7db9057b9c363a89926671600080a3005b60405162461bcd60e51b81526020600482015260166024820152754f6666657220616c726561647920696e61637469766560501b6044820152606490fd5b60405162461bcd60e51b815260206004820152600e60248201526d139bdd08185d5d1a1bdc9a5e995960921b6044820152606490fd5b5082600054163314611aaf565b506002548110611a7d565b602090602060408183019282815285518094520193019160005b828110611baf575050505090565b835185529381019392810192600101611ba1565b600854811015611bfa5760086000527ff3f7a9fe364faab93b216da50a3214154f22a0a2b415b23a84c8169e8b636ee30190600090565b634e487b7160e01b600052603260045260246000fd5b8054821015611bfa5760005260206000200190600090565b604090600319011261021b576004359060243590565b600435906001600160a01b038216820361021b57565b6101c0810190811067ffffffffffffffff82111761061957604052565b90601f8019910116810190811067ffffffffffffffff82111761061957604052565b67ffffffffffffffff811161061957601f01601f191660200190565b81601f8201121561021b57803590611cc682611c93565b92611cd46040519485611c71565b8284526020838301011161021b57816000926020809301838601378301015290565b90600182811c92168015611d26575b6020831014611d1057565b634e487b7160e01b600052602260045260246000fd5b91607f1691611d05565b90604051918260008254611d4381611cf6565b90818452602094600191600181169081600014611db35750600114611d74575b505050611d7292500383611c71565b565b600090815285812095935091905b818310611d9b575050611d729350820101388080611d63565b85548884018501529485019487945091830191611d82565b92505050611d7294925060ff191682840152151560051b820101388080611d63565b919082519283825260005b848110611e01575050826000602080949584010152601f8019910116010190565b602081830181015184830182015201611de0565b15611e1c57565b60405162461bcd60e51b815260206004820152601060248201526f125b9d985b1a59081bd999995c88125160821b6044820152606490fd5b15611e5b57565b60405162461bcd60e51b8152602060048201526012602482015271119211481a5cc81b9bdd08195b98589b195960721b6044820152606490fd5b15611e9c57565b60405162461bcd60e51b81526020600482015260156024820152745469746c652063616e6e6f7420626520656d70747960581b6044820152606490fd5b15611ee057565b60405162461bcd60e51b815260206004820152601b60248201527f4465736372697074696f6e2063616e6e6f7420626520656d70747900000000006044820152606490fd5b15611f2c57565b60405162461bcd60e51b815260206004820152601c60248201527f5072696365206d7573742062652067726561746572207468616e2030000000006044820152606490fd5b15611f7857565b60405162461bcd60e51b815260206004820152601f60248201527f4475726174696f6e206d7573742062652067726561746572207468616e2030006044820152606490fd5b15611fc457565b60405162461bcd60e51b815260206004820152601c60248201527f536c6f7473206d7573742062652067726561746572207468616e2030000000006044820152606490fd5b60001981146106ff5760010190565b818102929181159184041417156106ff57565b919082018092116106ff57565b60085490600160401b8210156106195761205b826001611d729401600855611bc3565b90919082549060031b91821b91600019901b1916179055565b90815491600160401b831015610619578261205b916001611d7295018155611c10565b90926120b0606093969594608084526080840190611dd5565b95602083015260408201520152565b919082039182116106ff57565b3d156120f7573d906120dd82611c93565b916120eb6040519384611c71565b82523d6000602084013e565b606090565b60005b6008908154918282101561219757839261211883611bc3565b959054600396871b1c146121335750506001919250016120ff565b909250600019918282019182116106ff5761205b61215361215f93611bc3565b905490871b1c91611bc3565b815480156121815781019261217384611bc3565b81939154921b1b1916905555565b634e487b7160e01b600052603160045260246000fd5b50505050565b6002600154146121ae576002600155565b604051633ee5aeb560e01b8152600490fd5b6000546001600160a01b031633036121d457565b60405163118cdaa760e01b8152336004820152602490fd5b60018060a01b037f9e7b61f58c47dc699ac88507c4f5bb9f121c03808c5676a8078fe583e46497015416604051639cd07acb60e01b815260208160448160008096816004840152600460248401525af191821561228257809261224e57505090565b9091506020823d60201161227a575b8161226a60209383611c71565b8101031261227757505190565b80fd5b3d915061225d565b604051903d90823e3d90fdfea264697066735822122005a12e2bf94ffaf52a952fd8f4cb9ea2fb13b9a7aa92d25204a8f262835ce27e64736f6c63430008180033",
  "linkReferences": {},
  "deployedLinkReferences": {}
}